:020000040800F2
:1000000000000120A922000885210008872100089E
:10001000892100088B2100088D21000800000000C4
:100020000000000000000000000000008F21000818
:10003000912100080000000093210008952100088C
:10004000F9220008F9220008F9220008F922000824
:10005000F9220008F9220008F92200089D21000871
:10006000F9220008F9220008F9220008F922000804
:10007000F9220008F9220008F9220008F9220008F4
:10008000F9220008F9220008F92200080000000007
:10009000000000000000000000000000F92200083D
:1000A000F9220008F9220008F9220008F9220008C4
:1000B000A9210008B9210008C9210008F922000877
:1000C000F9220008F9220008F9220008F9220008A4
:1000D000F9220008F9220008D921000800000000D8
:1000E000F9220008F9220008F922000800000000A7
:1000F000000000000000000000000000F9220008DD
:1001000000000000F9220008F9220008F922000886
:1001100000000000000000000000000000000000DF
:10012000F9220008F9220008F9220008F922000843
:10013000F92200080000000000000000000000009C
:10014000000000000000000000000000F92200088C
:10015000F9220008F9220008F9220008F922000813
:10016000F9220008F9220008000000000000000049
:10017000000000000000000000000000000000007F
:1001800000000000F922000800000000000000004C
:04019000F922000848
:1001C00010B5054C237833B9044B13B10448AFF391
:1001D00000800123237010BD080A002000000000E9
:1001E0000C00010808B5034B1BB103490348AFF3EA
:1001F000008008BD000000000C0A00200C0001086F
:1002000081F0004102E000BF83F0004330B54FEAC7
:1002100041044FEA430594EA050F08BF90EA020F34
:100220001FBF54EA000C55EA020C7FEA645C7FEAC7
:10023000655C00F0E2804FEA5454D4EB5555B8BFEA
:100240006D420CDD2C4480EA020281EA030382EA5B
:10025000000083EA010180EA020281EA0303362DED
:1002600088BF30BD11F0004F4FEA01314FF4801CC0
:100270004CEA113102D0404261EB410113F0004FD2
:100280004FEA03334CEA133302D0524263EB430389
:1002900094EA050F00F0A780A4F10104D5F1200E27
:1002A0000DDB02FA0EFC22FA05F2801841F1000182
:1002B00003FA0EF2801843FA05F359410EE0A5F156
:1002C00020050EF1200E012A03FA0EFC28BF4CF087
:1002D000020C43FA05F3C01851EBE37101F000453D
:1002E00007D54FF0000EDCF1000C7EEB00006EEB4A
:1002F0000101B1F5801F1BD3B1F5001F0CD34908D4
:100300005FEA30004FEA3C0C04F101044FEA44522A
:1003100012F5800F80F09A80BCF1004F08BF5FEAB1
:10032000500C50F1000041EB045141EA050130BD91
:100330005FEA4C0C404141EB0101013C28BFB1F5A3
:10034000801FE9D291F0000F04BF01460020B1FAEE
:1003500081F308BF2033A3F10B03B3F120020CDAC1
:100360000C3208DD02F1140CC2F10C0201FA0CF09F
:1003700021FA02F10CE002F11402D8BFC2F1200C04
:1003800001FA02F120FA0CFCDCBF41EA0C019040BA
:10039000E41AA2BF01EB0451294330BD6FEA040403
:1003A0001F3C1CDA0C340EDC04F11404C4F12002EE
:1003B00020FA04F001FA02F340EA030021FA04F300
:1003C00045EA030130BDC4F10C04C4F1200220FA57
:1003D00002F001FA04F340EA0300294630BD21FA95
:1003E00004F0294630BD94F0000F83F4801306BF5B
:1003F00081F480110134013D4EE77FEA645C18BF4F
:100400007FEA655C29D094EA050F08BF90EA020FE5
:1004100005D054EA000C04BF1946104630BD91EADD
:10042000030F1EBF0021002030BD5FEA545C05D1E0
:100430004000494128BF41F0004130BD14F580041F
:100440003CBF01F5801130BD01F0004545F0FE4193
:1004500041F470014FF0000030BD7FEA645C1ABFC8
:10046000194610467FEA655C1CBF0B46024650EAFF
:10047000013406BF52EA033591EA030F41F400212B
:1004800030BD00BF90F0000F04BF0021704730B5B1
:100490004FF4806404F132044FF000054FF0000186
:1004A00050E700BF90F0000F04BF0021704730B547
:1004B0004FF4806404F1320410F0004548BF40421C
:1004C0004FF000013EE700BF42004FEAE2014FEA71
:1004D00031014FEA02701FBF12F07F4393F07F4F4C
:1004E00081F06051704732F07F4208BF704793F04F
:1004F0007F4F04BF41F40021704730B54FF4607462
:1005000001F0004521F000411CE700BF50EA010264
:1005100008BF704730B54FF000050AE050EA01020D
:1005200008BF704730B511F0004502D5404261EB7D
:1005300041014FF4806404F132045FEA915C3FF4BE
:10054000D8AE4FF003025FEADC0C18BF03325FEA5B
:10055000DC0C18BF033202EBDC02C2F1200300FA0C
:1005600003FC20FA02F001FA03FE40EA0E0021FA31
:1005700002F11444BDE600BF70B54FF0FF0C4CF41F
:10058000E06C1CEA11541DBF1CEA135594EA0C0FD1
:1005900095EA0C0F00F0DEF82C4481EA030621EA0C
:1005A0004C5123EA4C5350EA013518BF52EA033547
:1005B00041F4801143F4801338D0A0FB02CE4FF0F9
:1005C0000005E1FB02E506F00042E0FB03E54FF029
:1005D0000006E1FB03569CF0000F18BF4EF0010E21
:1005E000A4F1FF04B6F5007F64F5407404D25FEA1D
:1005F0004E0E6D4146EB060642EAC62141EA5551D0
:100600004FEAC52040EA5E504FEACE2EB4F1FD0C11
:1006100088BFBCF5E06F1ED8BEF1004F08BF5FEA8F
:10062000500E50F1000041EB045170BD06F0004641
:1006300046EA010140EA020081EA0301B4EB5C04EE
:10064000C2BFD4EB0C0541EA045170BD41F48011E6
:100650004FF0000E013C00F3AB8014F1360FDEBF0B
:10066000002001F0004170BDC4F10004203C35DAE7
:100670000C341BDC04F11404C4F1200500FA05F36A
:1006800020FA04F001FA05F240EA020001F000420B
:1006900021F0004110EBD37021FA04F642EB060181
:1006A0005EEA430E08BF20EAD37070BDC4F10C04AB
:1006B000C4F1200500FA04F320FA05F001FA04F26F
:1006C00040EA020001F0004110EBD37041F100015B
:1006D0005EEA430E08BF20EAD37070BDC4F1200566
:1006E00000FA05F24EEA020E20FA04F301FA05F2CE
:1006F00043EA020321FA04F001F0004121FA04F276
:1007000020EA020000EBD3705EEA430E08BF20EA45
:10071000D37070BD94F0000F0FD101F0004640007F
:1007200041EB010111F4801F08BF013CF7D041EA01
:10073000060195F0000F18BF704703F00046520005
:1007400043EB030313F4801F08BF013DF7D043EAD6
:100750000603704794EA0C0F0CEA135518BF95EA8C
:100760000C0F0CD050EA410618BF52EA4306D1D113
:1007700081EA030101F000414FF0000070BD50EA32
:10078000410606BF1046194652EA430619D094EABC
:100790000C0F02D150EA013613D195EA0C0F05D1A6
:1007A00052EA03361CBF104619460AD181EA0301FA
:1007B00001F0004141F0FE4141F470014FF00000B2
:1007C00070BD41F0FE4141F4780170BD70B54FF04D
:1007D000FF0C4CF4E06C1CEA11541DBF1CEA1355CD
:1007E00094EA0C0F95EA0C0F00F0A7F8A4EB0504AF
:1007F00081EA030E52EA03354FEA013100F08880A6
:100800004FEA03334FF0805545EA131343EA12636E
:100810004FEA022245EA111545EA10654FEA002623
:100820000EF000419D4208BF964244F1FD0404F5DC
:10083000407402D25B084FEA3202B61A65EB030538
:100840005B084FEA32024FF480104FF4002CB6EBF5
:10085000020E75EB030E22BFB61A754640EA0C0075
:100860005B084FEA3202B6EB020E75EB030E22BFB5
:10087000B61A754640EA5C005B084FEA3202B6EBF6
:10088000020E75EB030E22BFB61A754640EA9C00B5
:100890005B084FEA3202B6EB020E75EB030E22BF85
:1008A000B61A754640EADC0055EA060E18D04FEA43
:1008B000051545EA16754FEA06164FEAC30343EAE3
:1008C00052734FEAC2025FEA1C1CC0D111F4801FB0
:1008D0000BD141EA00014FF000004FF0004CB6E7A9
:1008E00011F4801F04BF01430020B4F1FD0C88BF48
:1008F000BCF5E06F3FF6AFAEB5EB030C04BFB6EB53
:10090000020C5FEA500C50F1000041EB045170BD45
:100910000EF0004E4EEA113114EB5C04C2BFD4EB72
:100920000C0541EA045170BD41F480114FF0000EF6
:10093000013C90E645EA060E8DE60CEA135594EA72
:100940000C0F08BF95EA0C0F3FF43BAF94EA0C0F75
:100950000AD150EA01347FF434AF95EA0C0F7FF4EA
:1009600025AF104619462CE795EA0C0F06D152EA3E
:1009700003353FF4FDAE1046194622E750EA410622
:1009800018BF52EA43067FF4C5AE50EA41047FF433
:100990000DAF52EA43057FF4EBAE12E74FF0FF3C98
:1009A00006E000BF4FF0010C02E000BF4FF0010C69
:1009B0004DF804CD4FEA410C7FEA6C5C4FEA430CE2
:1009C00018BF7FEA6C5C1BD001B050EA410C0CBF31
:1009D00052EA430C91EA030F02BF90EA020F002093
:1009E000704710F1000F91EA030F58BF994208BFFA
:1009F00090422CBFD8176FEAE37040F001007047B7
:100A00004FEA410C7FEA6C5C02D150EA013C07D10D
:100A10004FEA430C7FEA6C5CD6D152EA033CD3D058
:100A20005DF8040B704700BF8446104662468C4652
:100A30001946634600E000BF01B5FFF7B7FF002885
:100A400048BF10F1000F01BD4DF808EDFFF7F4FFAE
:100A50000CBF012000205DF808FB00BF4DF808ED39
:100A6000FFF7EAFF34BF012000205DF808FB00BF5C
:100A70004DF808EDFFF7E0FF94BF012000205DF87E
:100A800008FB00BF4DF808EDFFF7CEFF94BF012033
:100A900000205DF808FB00BF4DF808EDFFF7C4FF2C
:100AA00034BF012000205DF808FB00BF4FEA41027F
:100AB000B2F1E04324BFB3F5001CDCF1FE5C0DD9BC
:100AC00001F0004C4FEAC0024CEA5070B2F1004F06
:100AD00040EB830008BF20F00100704711F0804F09
:100AE00021D113F13872BCBF01F00040704741F4CE
:100AF00080114FEA5252C2F11802C2F1200C10FAD2
:100B00000CF320FA02F018BF40F001004FEAC123B5
:100B10004FEAD32303FA0CFC40EA0C0023FA02F359
:100B20004FEA4303CCE77FEA625307D150EA01332F
:100B30001EBF4FF0FE4040F44000704701F00040FF
:100B400040F0FE4040F40000704700BF80F00040DD
:100B500002E000BF81F0004142001FBF5FEA410395
:100B600092EA030F7FEA226C7FEA236C6AD04FEA95
:100B70001262D2EB1363C1BFD218414048404140DA
:100B8000B8BF5B42192B88BF704710F0004F40F48C
:100B9000000020F07F4018BF404211F0004F41F4A8
:100BA000000121F07F4118BF494292EA030F3FD074
:100BB000A2F1010241FA03FC10EB0C00C3F1200387
:100BC00001FA03F100F0004302D5494260EB400016
:100BD000B0F5000F13D3B0F1807F06D340084FEA81
:100BE000310102F10102FE2A51D2B1F1004F40EB76
:100BF000C25008BF20F0010040EA030070474900DE
:100C000040EB0000013A28BFB0F5000FEDD2B0FA7A
:100C100080FCACF1080CB2EB0C0200FA0CF0AABF9D
:100C200000EBC25052421843BCBFD040184370473B
:100C300092F0000F81F4000106BF80F40000013241
:100C4000013BB5E74FEA41037FEA226C18BF7FEA18
:100C5000236C21D092EA030F04D092F0000F08BF5A
:100C60000846704790EA010F1CBF0020704712F041
:100C70007F4F04D1400028BF40F00040704712F180
:100C800000723CBF00F50000704700F0004343F0E5
:100C9000FE4040F4000070477FEA226216BF08461B
:100CA0007FEA23630146420206BF5FEA412390EADE
:100CB000010F40F4800070474FF0000304E000BFD4
:100CC00010F0004348BF40425FEA000C08BF704785
:100CD00043F0964301464FF000001CE050EA010249
:100CE00008BF70474FF000030AE000BF50EA01025E
:100CF00008BF704711F0004302D5404261EB41014B
:100D00005FEA010C02BF84460146002043F0B6436F
:100D100008BFA3F18053A3F50003BCFA8CF2083A94
:100D2000A3EBC25310DB01FA02FC634400FA02FC9D
:100D3000C2F12002BCF1004F20FA02F243EB0200A4
:100D400008BF20F00100704702F1200201FA02FC06
:100D5000C2F1200250EA4C0021FA02F243EB0200F9
:100D600008BF20EADC7070474FF0FF0C1CEAD0523D
:100D70001EBF1CEAD15392EA0C0F93EA0C0F6FD0FE
:100D80001A4480EA010C400218BF5FEA41211ED0DC
:100D90004FF0006343EA501043EA5111A0FB0131C8
:100DA0000CF00040B1F5000F3EBF490041EAD3719D
:100DB0005B0040EA010062F17F02FD2A1DD8B3F119
:100DC000004F40EBC25008BF20F00100704790F088
:100DD000000F0CF0004C08BF49024CEA502040EADA
:100DE00051207F3AC2BFD2F1FF0340EAC2507047A0
:100DF00040F400004FF00003013A5DDC12F1190FDE
:100E0000DCBF00F000407047C2F10002410021FA4F
:100E100002F1C2F1200200FA02FC5FEA310040F167
:100E2000000053EA4C0308BF20EADC70704792F0E0
:100E3000000F00F0004C02BF400010F4000F013A18
:100E4000F9D040EA0C0093F0000F01F0004C02BF13
:100E5000490011F4000F013BF9D041EA0C018FE782
:100E60000CEAD15392EA0C0F18BF93EA0C0F0AD088
:100E700030F0004C18BF31F0004CD8D180EA0100AE
:100E800000F00040704790F0000F17BF90F0004F47
:100E9000084691F0000F91F0004F14D092EA0C0F29
:100EA00001D142020FD193EA0C0F03D14B0218BFBC
:100EB000084608D180EA010000F0004040F0FE4002
:100EC00040F40000704740F0FE4040F4400070479E
:100ED0004FF0FF0C1CEAD0521EBF1CEAD15392EA1D
:100EE0000C0F93EA0C0F69D0A2EB030280EA010C0D
:100EF00049024FEA402037D04FF0805343EA1111A6
:100F000043EA10130CF000408B4238BF5B0042F103
:100F10007D024FF4000C8B4224BF5B1A40EA0C00A8
:100F2000B3EB510F24BFA3EB510340EA5C00B3EBDA
:100F3000910F24BFA3EB910340EA9C00B3EBD10FC8
:100F400024BFA3EBD10340EADC001B0118BF5FEA1A
:100F50001C1CE0D1FD2A3FF650AF8B4240EBC25043
:100F600008BF20F0010070470CF0004C4CEA502004
:100F70007F32C2BFD2F1FF0340EAC250704740F453
:100F800000004FF00003013A37E792F0000F00F045
:100F9000004C02BF400010F4000F013AF9D040EAC3
:100FA0000C0093F0000F01F0004C02BF490011F457
:100FB000000F013BF9D041EA0C0195E70CEAD1534F
:100FC00092EA0C0F08D142027FF47DAF93EA0C0F36
:100FD0007FF470AF084676E793EA0C0F04D14B021A
:100FE0003FF44CAF08466EE730F0004C18BF31F0CC
:100FF000004CCAD130F000427FF45CAF31F00043C6
:101000007FF43CAF5FE700BF4FF0FF3C06E000BF5E
:101010004FF0010C02E000BF4FF0010C4DF804CD81
:101020004FEA40024FEA41037FEA226C18BF7FEA91
:10103000236C11D001B052EA530C18BF90EA010F93
:1010400058BFB2EB030088BFC81738BF6FEAE17022
:1010500018BF40F0010070477FEA226C02D15FEABE
:10106000402C05D17FEA236CE4D15FEA412CE1D02A
:101070005DF8040B704700BF844608466146FFE7F1
:101080000FB5FFF7C9FF002848BF10F1000F0FBDD3
:101090004DF808EDFFF7F4FF0CBF012000205DF8CC
:1010A00008FB00BF4DF808EDFFF7EAFF34BF012051
:1010B00000205DF808FB00BF4DF808EDFFF7E0FFEA
:1010C00094BF012000205DF808FB00BF4DF808ED3B
:1010D000FFF7D2FF94BF012000205DF808FB00BF9E
:1010E0004DF808EDFFF7C8FF34BF012000205DF880
:1010F00008FB00BF4FEA4002B2F1FE4F0FD34FF0A2
:101100009E03B3EB12620DD94FEA002343F0004374
:1011100010F0004F23FA02F018BF404270474FF022
:101120000000704712F1610F01D1420205D110F0A9
:10113000004008BF6FF0004070474FF0000070475C
:1011400042000ED2B2F1FE4F0BD34FF09E03B3EB31
:10115000126209D44FEA002343F0004323FA02F05D
:1011600070474FF00000704712F1610F01D1420249
:1011700002D14FF0FF3070474FF00000704700BFC2
:101180007BB972B90029BEBF00204FF0004106E0D4
:1011900008BF00281CBF6FF000414FF0FF3000F087
:1011A000BFB9ADF1080C6DE904CE002909DB002BB5
:1011B0001ADB00F04DF8DDF804E0DDE9022304B0AD
:1011C0007047404261EB4101002B1BDB00F040F80F
:1011D000DDF804E0DDE9022304B0404261EB4101A7
:1011E000524263EB43037047524263EB430300F008
:1011F0002FF8DDF804E0DDE9022304B0404261EBA2
:1012000041017047524263EB430300F021F8DDF8DF
:1012100004E0DDE9022304B0524263EB430370476C
:1012200053B94AB9002908BF00281CBF4FF0FF314D
:101230004FF0FF3000F074B9ADF1080C6DE904CE49
:1012400000F006F8DDF804E0DDE9022304B07047A1
:101250002DE9F047089E0D4604468846002B4DD1E7
:101260008A42944668D9B2FA82F252B101FA02F384
:10127000C2F1200120FA01F10CFA02FC41EA030854
:1012800094404FEA1C45210CB8FBF5FE1FFA8CF781
:1012900005FB1E8341EA03430EFB07F199420BD97C
:1012A0001CEB03030EF1FF3080F01E81994240F2E7
:1012B0001B81AEF1020E63445B1AA4B2B3FBF5F0DE
:1012C00005FB103344EA034400FB07F7A7420AD9A1
:1012D0001CEB040400F1FF3380F00881A74240F2C8
:1012E000058164440238E41B40EA0E4000211EB12F
:1012F000D4400023C6E90043BDE8F0878B4208D9FB
:10130000002E00F0EE800021C6E900050846BDE889
:10131000F087B3FA83F100294AD1AB4202D382426B
:1013200000F2F980841A65EB030301209846002E31
:10133000E2D0C6E90048DFE702B9FFDEB2FA82F286
:10134000002A40F09180A1EB0C054FEA1C471FFAE0
:101350008CFE0121B5FBF7F307FB1350250C45EA82
:1013600000450EFB03F0A84208D91CEB050503F16C
:10137000FF3802D2A84200F2CB8043462D1AA4B215
:10138000B5FBF7F007FB105544EA05440EFB00FEE1
:10139000A64508D91CEB040400F1FF3502D2A6458E
:1013A00000F2BB802846A4EB0E0440EA03409EE70F
:1013B000C1F120078B4022FA07FC4CEA030C20FA0B
:1013C00007F405FA01F31C43FD404FEA1C4900FAFB
:1013D00001F3B5FBF9F8200C1FFA8CFE09FB185538
:1013E00040EA054508FB0EF0A84202FA01F20BD9CB
:1013F0001CEB050508F1FF3A80F08880A84240F216
:101400008580A8F1020865442D1AA4B2B5FBF9F055
:1014100009FB105544EA054500FB0EFEAE4508D910
:101420001CEB050500F1FF346CD2AE456AD90238D9
:10143000654440EA0840A0FB0294A5EB0E05A542D6
:10144000C846A64656D353D05EB1B3EB080265EB4F
:101450000E0505FA07F722FA01F3CD401F43C6E94E
:1014600000750021BDE8F087C2F1200320FA03F1E6
:101470000CFA02FC25FA03F395400D434FEA1C4792
:101480001FFA8CFEB3FBF7F107FB11302B0C43EA7C
:10149000004301FB0EF0984204FA02F408D91CEB59
:1014A000030301F1FF382FD298422DD9023963444A
:1014B0001B1AADB2B3FBF7F007FB103345EA034547
:1014C00000FB0EF3AB4208D91CEB050500F1FF3819
:1014D00016D2AB4214D902386544ED1A40EA0141F4
:1014E00038E73146304607E78646E5E61846FAE62D
:1014F0004B45A9D2B9EB020864EB0C0E0138A3E707
:101500004046EAE7204694E74146D1E7D0467BE7EC
:10151000023B654432E7084609E76444023842E783
:10152000704700BF00000000000000000000000045
:1015300000000000000000000000000000000000AB
:1015400090F800F06DE9024520F007016FF0000C03
:1015500010F0070491F820F040F049804FF00004AB
:101560006FF00700D1E9002391F840F000F1080086
:1015700082FA4CF2A4FA8CF283FA4CF3A2FA8CF3BE
:101580004BBBD1E9022382FA4CF200F10800A4FA25
:101590008CF283FA4CF3A2FA8CF3E3B9D1E9042379
:1015A00082FA4CF200F10800A4FA8CF283FA4CF3B0
:1015B000A2FA8CF37BB9D1E9062301F1200182FA6A
:1015C0004CF200F10800A4FA8CF283FA4CF3A2FA70
:1015D0008CF3002BC6D0002A04BF04301A4612BA7E
:1015E000B2FA82F2FDE8024500EBD2007047D1E981
:1015F000002304F00305C4F100004FEAC50514F010
:10160000040F91F840F00CFA05F562EA05021CBFE0
:1016100063EA050362464FF00004A9E700000000FA
:1016200001F0FF01102A2BDB10F0070F08D010F893
:10163000013B013A8B422DD010F0070F42B3F6D197
:10164000F0B441EA012141EA014122F007047FF0B0
:1016500000070023F0E80256083C85EA010586EA07
:10166000010685FA47F5A3FA87F586FA47F6A5FA43
:1016700087F68EB9EED1F0BC01F0FF0102F007024F
:1016800032B110F8013B013A83EA010313B1F8D1FA
:101690000020704701387047002D06BF35460338DB
:1016A000073815F0010F07D1013015F4807F02BF14
:1016B000013015F4C03F0130F0BC0138704700BF65
:1016C000844641EA000313F003036DD1403A41D34D
:1016D00051F8043B40F8043B51F8043B40F8043B0C
:1016E00051F8043B40F8043B51F8043B40F8043BFC
:1016F00051F8043B40F8043B51F8043B40F8043BEC
:1017000051F8043B40F8043B51F8043B40F8043BDB
:1017100051F8043B40F8043B51F8043B40F8043BCB
:1017200051F8043B40F8043B51F8043B40F8043BBB
:1017300051F8043B40F8043B51F8043B40F8043BAB
:1017400051F8043B40F8043B51F8043B40F8043B9B
:10175000403ABDD2303211D351F8043B40F8043B3B
:1017600051F8043B40F8043B51F8043B40F8043B7B
:1017700051F8043B40F8043B103AEDD20C3205D34B
:1017800051F8043B40F8043B043AF9D2043208D043
:10179000D2071CBF11F8013B00F8013B01D30B88B5
:1017A00003806046704700BF082A13D38B078DD093
:1017B00010F003038AD0C3F10403D21ADB071CBF65
:1017C00011F8013B00F8013B80D331F8023B20F8CF
:1017D000023B7BE7043AD9D3013A11F8013B00F808
:1017E000013BF9D20B7803704B7843708B78837090
:1017F000604670474FEA410C7FEA6C5C02D150EAC8
:10180000013C0AD14FEA430C7FEA6C5C02D152EAF8
:10181000033C02D14FF0000070474FF001007047C9
:101820004FEA410212F5001215D211D56FF4787308
:10183000B3EB625212D94FEAC12343F0004343EAAB
:10184000505311F0004F23FA02F018BF4042704786
:101850004FF00000704750EA013005D111F0004010
:1018600008BF6FF0004070474FF00000704700BFA6
:10187000F0B589B000240394049405940694079469
:101880000094254B1A6B42F080021A631A6B02F027
:1018900080020092009A01941A6B42F001021A63CE
:1018A0001A6B02F001020192019A02941A6B42F043
:1018B00002021A631B6B03F002030293029B174D93
:1018C00001224FF4A041284601F0BAF822464FF415
:1018D0002041284601F0B4F8022603964FF4041381
:1018E00004930127059703A90D4800F0C9FF4FF4A1
:1018F0007043039304970594069603A9284600F0C5
:10190000BFFF22460321072000F002FF072000F05E
:1019100037FF09B0F0BD00BF0038024000040240AC
:101920000000024072B6FEE700B587B000230293C4
:101930000393049305930093019314484FF080425E
:10194000026053224260836042F20F72C260036100
:101950008023836102F058FB90B94FF480530293C7
:1019600002A90A4802F0B0FC60B900230093019379
:101970006946064802F014FE30B907B05DF804FB72
:10198000FFF7D0FFFFF7CEFFFFF7CCFF600B002083
:1019900010B596B0002412941394149415941094D6
:1019A000119409940A940B940C940D940E940F9432
:1019B0002022214601A806F03FF82F482F4B036054
:1019C00053234360846042F20F73C3600461446137
:1019D000846102F019FB00283FD14FF48053129329
:1019E00012A9254802F070FC002838D1224802F0E4
:1019F00037FB002835D100231093119310A91E48FE
:101A000002F0CEFD00282ED16023099300230A9313
:101A10000B930C930D930E930F93042209A9164870
:101A200002F0D8FB08BB082209A9134802F0D2FB38
:101A3000E8B90023019302930393049305934FF4B1
:101A400000520692089301A90B4802F0E7FD80B905
:101A5000094800F001FB16B010BDFFF763FFFFF768
:101A600061FFFFF75FFFFFF75DFFFFF75BFFFFF72A
:101A700059FFFFF757FF00BF180B0020000001407F
:101A800000B58DB02422002103A805F0D5FF002366
:101A9000019302931048114A0260436083604FF63D
:101AA000FF72C260036183610323039301230593E3
:101AB000099303A902F000FB50B90023019302939C
:101AC00001A9054802F06CFD20B90DB05DF804FBDA
:101AD000FFF728FFFFF726FFA80B002000040040B7
:101AE00000B58DB02422002103A805F0A5FF002336
:101AF000019302931048114A0260436083604FF6DD
:101B0000FF72C26003618361032303930123059382
:101B1000099303A902F0D0FA50B90023019302936C
:101B200001A9054802F03CFD20B90DB05DF804FBA9
:101B3000FFF7F8FEFFF7F6FEF00B0020000800406C
:101B400008B50A480A4B03604FF41643436000236C
:101B50008360C36003610C2242618361C36102F050
:101B6000B3FE00B908BDFFF7DDFE00BF380C002052
:101B70000044004008B50A480A4B03600A4B436022
:101B800000238360C3604FF480420261436183613C
:101B9000C361036201F0B4F900B908BDFFF7C2FEEA
:101BA0006C0A002000540040801A060008B50D4859
:101BB0000D4B03604FF48273436000238360C36066
:101BC000036143614FF400728261C3610362436247
:101BD00083620A23C36201F0B9FF00B908BDFFF7B1
:101BE000A1FE00BFC00A00200030014008B50A482D
:101BF0000A4B03604FF4E133436000238360C3600A
:101C000003610C2242618361C36102F05DFE00B991
:101C100008BDFFF787FE00BF7C0C002000140140C8
:101C200000B585B0002300930193029303931448F9
:101C3000144A02604FF4803242608360036103768D
:101C400080F82030C362104A8262C3600122C26100
:101C500080F83030426100F051FC60B900230093FD
:101C60000122019202936946054800F073FC20B9F5
:101C700005B05DF804FBFFF755FEFFF753FE00BF0C
:101C8000240A0020002001400100000F00B595B09B
:101C90003022002108A805F0CFFE0023039304930F
:101CA0000593069307930193204A116C41F08051EC
:101CB0001164126C02F080520192019A02931C4A44
:101CC000136823F4404343F400431360136803F4A0
:101CD00040430293029B012308934FF480330993FE
:101CE00002230E934FF480030F93192310934FF4A4
:101CF000A873119304231293139308A801F002FC14
:101D000080B90F23039302210491002305934FF41C
:101D100080520692079303A801F042FE20B915B045
:101D20005DF804FBFFF7FEFDFFF7FCFD0038024005
:101D30000070004008B500F007FBFFF7A7FFFFF7B2
:101D400097FDFFF7F1FDFFF723FEFFF799FEFFF781
:101D5000C7FEFFF7F5FEFFF70DFFFFF727FFFFF7C1
:101D600045FFFFF75DFF05F0A9FC05F0B9FC05F0A4
:101D70000DFDFCE782B0002100910B4B5A6C42F440
:101D800080425A645A6C02F480420092009A019197
:101D90001A6C42F080521A641B6C03F0805301935A
:101DA000019B02B0704700BF0038024000B589B007
:101DB000002303930493059306930793026803F1AA
:101DC000804303F590339A4202D009B05DF804FBDA
:101DD0000021019103F58C335A6C42F480725A64ED
:101DE0005A6C02F480720192019A02911A6B42F0CD
:101DF00001021A631B6B03F001030293029B012390
:101E000003930323049303A9014800F039FDDCE7A1
:101E10000000024030B589B000230393049305937A
:101E2000069307930268144B9A4201D009B030BD63
:101E300000250195114C236B43F002032363236BB0
:101E400003F002030193019B4FF4407303931223A9
:101E50000493032306930423079303A9084800F07F
:101E60000FFD0295236C43F400132364236C03F4E9
:101E700000130293029BD9E700540040003802404F
:101E800000040240F0B589B0002303930493059346
:101E90000693079302681E4B9A4201D009B0F0BD29
:101EA0000024009403F584335A6C42F480525A643F
:101EB0005A6C02F480520092009A01941A6B42F01C
:101EC00001021A631A6B02F001020192019A029454
:101ED0001A6B42F002021A631B6B03F002030293B7
:101EE000029B2023039302270497032606960525C9
:101EF000079503A9074800F0C3FC30230393049718
:101F000005940696079503A9034800F0B9FCC5E7B8
:101F100000300140000002400004024000B583B0E0
:101F20000368154A934205D0B3F1804F0FD003B038
:101F30005DF804FB00230093104B5A6C42F0010241
:101F40005A645B6C03F001030093009BEFE70022EF
:101F5000019203F50E33196C41F0010119641B6CF9
:101F600003F001030193019B01211C2000F0D0FB31
:101F70001C2000F005FCDAE70000014000380240B8
:101F800010B58AB00023059306930793089309932D
:101F900003682C4A934204D02B4A934229D00AB0BA
:101FA00010BD00240194294B1A6C42F002021A64FD
:101FB0001A6C02F002020192019A02941A6B42F02A
:101FC00001021A631B6B03F001030293029BC023FF
:101FD000059302230693099305A91D4800F050FCC0
:101FE000224621461D2000F093FB1D2000F0C8FB77
:101FF000D5E700240394154B1A6C42F004021A64CE
:102000001A6C02F004020392039A04941A6B42F0D1
:1020100002021A631B6B03F002030493049BC023A8
:10202000059302230693099305A90A4800F028FCAA
:10203000224621461E2000F06BFB1E2000F0A0FB74
:10204000ADE700BF00040040000800400038024037
:10205000000002400004024000B587B00023019355
:10206000029303930493059302680F4B9A4202D0A4
:1020700007B05DF804FB002300930C4B1A6B42F091
:1020800001021A631B6B03F001030093009B4FF4E2
:10209000C0630193022302930123059301A904481D
:1020A00000F0EEFBE4E700BF000001400038024012
:1020B0000000024010B58AB00023059306930793F1
:1020C0000893099303682B4A934204D02A4A934207
:1020D0002CD00AB010BD00240194284B1A6C42F495
:1020E00000321A641A6C02F400320192019A0294CE
:1020F0001A6B42F001021A631B6B03F00103029397
:10210000029B0C23059302230693032308930723C2
:10211000099305A91A4800F0B3FB22462146262060
:1021200000F0F6FA262000F02BFBD2E70021039105
:10213000124B5A6C42F020025A645A6C02F0200290
:102140000392039A04911A6B42F001021A631B6B0B
:1021500003F001030493049B4FF4C053059302233F
:102160000693032308930823099305A9044800F064
:1021700087FBAEE7004400400014014000380240F5
:1021800000000240FEE7FEE7FEE7FEE7FEE77047DD
:102190007047704708B500F0F1F808BD08B5022097
:1021A00000F054FC08BD000008B5024801F021FE13
:1021B00008BD00BF600B002008B5024801F019FE01
:1021C00008BD00BFA80B002008B5024801F011FEB1
:1021D00008BD00BFF00B002008B5024802F098FCD3
:1021E00008BD00BF380C00200120704708B505F07D
:1021F000C5FB162303604FF0FF3008BD08B54FF054
:10220000FF31FFF7F3FFFEE770B50C4616460025D9
:1022100006E0AFF30080214601F8010B01350C46C2
:10222000B542F6DB304670BD70B50C46164600254B
:1022300004E014F8010BAFF300800135B542F8DB80
:10224000304670BD4FF0FF3070474FF400534B6085
:1022500000207047012070470020704710B50346EA
:102260000C4A0D490D48006840B10C480068034411
:10227000521A934206D8094A136010BD0748084C09
:102280000460F2E705F07AFB0C2303604FF0FF30A7
:10229000F3E700BF0000012000040000C00C002094
:1022A000700E002070470000DFF834D00D480E4952
:1022B0000E4A002302E0D458C4500433C4188C42A0
:1022C000F9D30B4A0B4C002301E013600432A24205
:1022D000FBD3FFF7E7FF05F057FBFFF72BFD704738
:1022E0000000012000000020080A0020141401084A
:1022F000080A00206C0E0020FEE7000010B504461E
:102300000E4B18784FF47A73B3FBF0F30C4A106855
:10231000B0FBF3F000F042FA68B90F2C01D90120AC
:102320000AE0002221464FF0FF3000F0F1F9054BA2
:102330001C60002000E0012010BD00BF0400002050
:10234000000000200800002008B50B4B1A6842F47A
:1023500000721A601A6842F480621A601A6842F4C5
:1023600080721A60032000F0C1F90020FFF7C6FF59
:10237000FFF700FD002008BD003C0240034A116841
:10238000034B1B780B441360704700BFC40C002044
:1023900004000020014B1868704700BFC40C0020E7
:1023A00038B50446FFF7F6FF0546B4F1FF3F02D00B
:1023B000044B1B781C44FFF7EDFF401BA042FAD3EF
:1023C00038BD00BF040000204A4B5A6822F4403256
:1023D0005A605A6841680A435A600268536823F495
:1023E0008073536002685368016943EA01235360B4
:1023F0000268536823F04073536002685368816831
:102400000B4353600268936823F40063936002688F
:102410009368C1680B439360826A374B9A4257D0E6
:102420000268936823F07063936002689368816A1E
:102430000B4393600268936823F0405393600268F3
:102440009368C16A0B4393600268936823F00203A8
:10245000936002689368017E43EA4103936090F8B9
:102460002030002B3FD00268536843F40063536070
:102470000268536823F46043536001684B68426A02
:10248000013A43EA42334B600268D36A23F4700393
:10249000D3620168CB6AC269013A43EA0253CB6254
:1024A0000268936823F4007393600268936890F85D
:1024B000301043EA412393600268936823F48063F9
:1024C000936002689368416943EA8123936070478F
:1024D0000268936823F0706393600268936823F046
:1024E00040539360B0E70268536823F4006353607D
:1024F000CAE700BF002301400100000F38B310B548
:102500000446036C43B1236C13F0100F0BD0012071
:10251000002384F83C3010BDFFF748FC00236364BF
:1025200084F83C30EFE7236C23F4885323F0020354
:1025300043F0020323642046FFF746FF0020606457
:10254000236C23F0030343F001032364E0E701203D
:102550007047000030B482B00023019390F83C3003
:10256000012B00F0BB80012380F83C300B68092B65
:1025700041D90468E2689BB203EB43031E3B4FF072
:10258000070C0CFA03F322EA0303E3600468E26831
:102590000B8803EB43031E3B8D6805FA03F31343DB
:1025A000E3604B68062B3DD80468626B03EB830342
:1025B000053B4FF01F0C0CFA03F322EA030363639D
:1025C0000468626B4B6803EB8303053BB1F800C002
:1025D0000CFA03F3134363630268414B9A4251D0F0
:1025E00002683F4B9A4256D0002380F83C30184690
:1025F00002B030BC7047046822699BB203EB43030E
:102600004FF0070C0CFA03F322EA0303236104687A
:1026100022690B8803EB43038D6805FA03F3134328
:102620002361BEE70C2B16D805682A6B03EB8303E6
:10263000233B1F2404FA03F322EA03032B630568F8
:102640002A6B4B6803EB8303233B0C8804FA03F3E8
:1026500013432B63C0E70568EA6A03EB8303413B3E
:102660001F2404FA03F322EA0303EB620568EA6A13
:102670004B6803EB8303413B0C8804FA03F31343D9
:10268000EB62A9E70B68122BAAD1164A536843F4F0
:1026900080035360A4E70B68103B012BA4D8114AB8
:1026A000536843F4000353600B68102B9CD10E4B0E
:1026B0001B6802F1467202F52E3202F28332A2FB4F
:1026C00003239B0C03EB83035B00019302E0019B5C
:1026D000013B0193019B002BF9D185E7022087E79D
:1026E000002001400023014000000020074AD36879
:1026F00023F4E0631B041B0C000200F4E0600343BE
:1027000043F0BF6343F40033D360704700ED00E053
:1027100000B5194BDB68C3F30223C3F1070CBCF10E
:10272000040F28BF4FF0040C03F1040EBEF1060F96
:1027300018D9033B4FF0FF3E0EFA0CFC21EA0C01C6
:1027400099400EFA03F322EA0303194300280BDB36
:102750000901C9B200F1604000F5614080F8001342
:102760005DF804FB0023E5E700F00F000901C9B2A2
:10277000024B1954F4E700BF00ED00E014ED00E057
:10278000002807DB00F01F02400901239340024AA2
:1027900042F82030704700BF00E100E00138B0F19E
:1027A000807F0BD24FF0E0235861054AF02182F878
:1027B00023100020986107221A617047012070479A
:1027C00000ED00E070B50446866DFFF7E3FD94F878
:1027D0003530DBB2022B06D080236365002384F8FA
:1027E0003430012070BD05462268136823F01603BB
:1027F00013602268536923F080035361236CE3B1B3
:102800002268136823F0080313602268136823F01A
:102810000103136023681B6813F0010F11D0FFF749
:10282000B9FD431B052BF5D920236365032084F8EC
:102830003500002384F83430D4E7A36C002BDFD1BB
:10284000E3E7E26D3F239340B360012384F8353022
:10285000002084F83400C5E790F83530DBB2022B55
:1028600003D08023436501207047052380F835306D
:102870000268136823F00103136000207047000012
:1028800000230F2B00F2D28070B582B060E0856823
:102890005E000324B44025EA0405CC68B4402C4310
:1028A0008460456825EA02054C68C4F300129A402A
:1028B0002A4342605AE0DC08083450F8246003F0F0
:1028C000070295000F22AA4026EA020E0A69AA40D2
:1028D00042EA0E0240F824205CE0042200E00022DC
:1028E00002FA0EF22A430234514D45F82420514A8F
:1028F00094686FEA0C0224EA0C054E6816F4801FF7
:1029000001D04CEA04054B4CA560E46802EA0405DA
:102910004E6816F4001F01D04CEA0405454CE560F2
:10292000646802EA04054E6816F4003F01D04CEAE0
:102930000405404C6560246822404D6815F4803FD2
:1029400001D04CEA04023B4C226001330F2B6BD8C0
:1029500001229A400C6804EA020C32EA0404F4D121
:102960004C6804F00304013C012C90D94A6802F041
:102970000302032A09D0C4685D000322AA4024EAA6
:1029800002048A68AA402243C2604A6802F0030235
:10299000022A90D004684FEA430E032202FA0EF294
:1029A00024EA02044A6802F0030202FA0EF2224309
:1029B00002604A6812F4403FC7D0002201921E4ACA
:1029C000546C44F480445464526C02F4804201928A
:1029D000019A9C08A51C164A52F8255003F00302E0
:1029E0004FEA820E0F2202FA0EF225EA0205134A7E
:1029F00090423FF474AF02F5806290420ED002F52F
:102A0000806290420CD002F5806290420AD002F5BA
:102A1000806290423FF461AF072261E701225FE7E5
:102A200002225DE703225BE702B070BD704700BF82
:102A300000380140003C01400038024000000240E4
:102A40000AB18161704709048161704708B5054B7F
:102A50005B69034200D108BD024B586104F0DAFE05
:102A6000F9E700BF003C014003685A6912F4806F27
:102A700001D1002070476FF480625A610023036324
:102A8000202280F83D2080F83E30026C42F00402A3
:102A9000026480F83C30012070472DE9F041074680
:102AA0000D4690461E4624E0FFF774FC069BC01AB4
:102AB000B04200D8EEB900233B63202287F83D20C6
:102AC00087F83E303A6C42F020023A6487F83C3096
:102AD00001201EE03B689C6925EA040C1FFA8CFC6F
:102AE000BCFA8CFC4FEA5C1CE04511D1B6F1FF3F0B
:102AF000DAD1C5F30743012BECD13B685B6925EACA
:102B0000030C1FFA8CFCBCFA8CFC4FEA5C1CEBE754
:102B10000020BDE8F0812DE9F04105460E4617463C
:102B200098463DE01A6842F400721A602B686FF410
:102B300080625A6100232B63202285F83D2085F8AE
:102B40003E302A6C42F004022A6485F83C300120B1
:102B500034E0FFF71FFCA0EB0800B84200D8FFB933
:102B600000232B63202285F83D2085F83E302A6C17
:102B700042F020022A6485F83C3001201EE02B68D8
:102B80009C6926EA0404A4B2003C18BF0124A4B145
:102B90002B685A6912F4806FC4D1B7F1FF3FD8D1C6
:102BA000C6F30743012BEAD12B685C6926EA0404CB
:102BB000A4B2003C18BF0124E9E70020BDE8F08181
:102BC00070B504460D46164623685B6913F0800F06
:102BD0001CD12046FFF748FFD0B9B5F1FF3FF3D035
:102BE000FFF7D8FB801BA84201D8002DECD10023B1
:102BF0002363202284F83D2084F83E30226C42F08A
:102C00002002226484F83C30012000E0002070BDE6
:102C10000120FCE72DE9F04385B004460D469146BE
:102C20001F46DDF830800D9E0368196841F48071FD
:102C300019600096434600224FF00111FFF72DFF67
:102C400060B9236805F0FE051D61334642462649FA
:102C50002046FFF760FF68B1012008E023681B6889
:102C600013F4807F02D04FF400732364032005B077
:102C7000BDE8F0830023039323685A6903929B699C
:102C80000393039B324641462046FFF799FF30B934
:102C9000012F0FD123685FFA89F61E61E7E7236CE5
:102CA000042B01D00120E2E72268136843F400738B
:102CB0001360F7E723684FEA19221A61324641464A
:102CC0002046FFF77DFF20B923685FFA89F61E6171
:102CD000CDE7236C042B01D00120C8E722681368DC
:102CE00043F400731360F7E7020001002DE9F04799
:102CF00084B004460D46164699460C9FDDF8348094
:102D00000268136843F4806313600368196841F430
:102D100080711960CDF800803B4600224FF0011110
:102D2000FFF7BBFE70B95FFA85FA236805F0FE0570
:102D30001D6143463A4641492046FFF7ECFE68B123
:102D4000012008E023681B6813F4807F02D04FF451
:102D500000732364032004B0BDE8F08700230393CD
:102D600023685A6903929B690393039B4246394641
:102D70002046FFF725FF80B9B9F1010F18D123686C
:102D8000F6B21E61424639462046FFF719FF68B386
:102D9000236C042B24D00120DDE7236C042B01D00D
:102DA0000120D8E72268136843F400731360F7E743
:102DB0002368320A1A61424639462046FFF700FF6F
:102DC00018B92368F6B21E61DCE7236C042B01D02E
:102DD0000120C0E72268136843F400731360F7E72B
:102DE0002268136843F400731360D4E72268136801
:102DF00043F480731360CDF800803B4600224FF00F
:102E000001112046FFF749FE68B922684AF0010324
:102E1000136143463A4609492046FFF77CFE0028E5
:102E200099D0012097E723681B6813F4807F02D0B4
:102E30004FF40073236403208DE700BF02000100FC
:102E400070B504460D46164623685B6913F0040FFF
:102E50001CD12046FFF708FED0B9B5F1FF3FF3D0F3
:102E6000FFF798FA801BA84201D8002DECD100236F
:102E70002363202284F83D2084F83E30226C42F007
:102E80002002226484F83C30012000E0002070BD64
:102E90000120FCE770B505460C4616462B685969BB
:102EA00011F0400F29D1596911F0100F15D1FFF71A
:102EB00071FA801BA04201D8002CEFD100232B63B4
:102EC000202285F83D2085F83E302A6C42F0200211
:102ED0002A6485F83C30012070BD6FF010025A6101
:102EE00000232B63202285F83D2085F83E302A6C94
:102EF0002A6485F83C300120EEE70020ECE7000072
:102F0000002800F0CC8070B5044690F83D30002BCE
:102F100077D0242384F83D302268136823F001031E
:102F200013602268136843F4004313602268136837
:102F300023F40043136000F0E9FD62685A4B9A42A3
:102F400064D85A4B98428CBF00230123002B40F0D9
:102F5000A8805749A1FB00318B0C25686A6822F0D4
:102F60003F0242EA91426A6021680A6A22F03F0207
:102F700066684D4DAE424FD8013313430B62216852
:102F8000CA6922F44F4222F0FF026668464B9E4215
:102F90004CD8431E7600B3FBF6F3013340F6FC70C9
:102FA000034278D0C3F30B031343CB6121680B6852
:102FB00023F0C003E269206A024313430B602168D7
:102FC0008B6823F4034323F0FF032269E068024384
:102FD00013438B602168CB6823F0FF036269A0690B
:102FE00002431343CB602268136843F0010313606C
:102FF00000202064202384F83D30206384F83E00C4
:1030000070BD80F83C30FEF705FF82E7294B9842FF
:103010008CBF0023012399E74FF4967505FB03F35A
:10302000254DA5FB03539B090133A6E7A368BBB954
:10303000451E06EB460CB5FBFCF50135C5F30B054B
:10304000B5FA85F56D0945BBC3B9013806EB4603F2
:10305000B0FBF3F30133C3F30B0343F40043A3E7E3
:10306000451E06EB860C0CEB8C0CB5FBFCF5013514
:10307000C5F30B05B5FA85F56D09E4E7013806EBF4
:10308000860303EB8303B0FBF3F30133C3F30B03BA
:1030900043F4404388E7042386E7012384E70120C3
:1030A00070470120ACE700BFA08601007F841E00AE
:1030B00083DE1B43FF083D00D34D62102DE9F04332
:1030C00083B004460F46904699460C9EFFF762F97E
:1030D000054694F83D00C0B2202803D0022003B07A
:1030E000BDE8F0830095192301224B492046FFF7E4
:1030F000D4FC002840F0898094F83C30012B00F08B
:103100008680012384F83C3023681A6812F0010F8E
:1031100003D11A6842F001021A602268136823F48E
:1031200000631360212384F83D30402384F83E304F
:10313000002323640A9B6362BDF82C306385638D92
:103140002385364BE362019500964B46424639464D
:103150002046FFF75FFD00285BD1238D002B35D083
:103160002A4631462046FFF72BFD20BB626A2368C2
:1031700012781A61626A531C6362218D013989B227
:103180002185638D9BB2013B9BB26385236858699F
:1031900010F0040FE1D00029DFD052781A61636A81
:1031A00001336362238D013B2385638D9BB2013B19
:1031B0009BB26385D1E7236C042B01D001208EE7FD
:1031C0002268136843F400731360F7E72A46314618
:1031D0002046FFF735FE50B1236C042B01D00120AF
:1031E0007DE72268136843F400731360F7E72268F1
:1031F000136843F400731360202384F83D300023E8
:1032000084F83E3084F83C3069E7022067E702200A
:1032100065E7012063E700BF020010000000FFFF28
:103220002DE9F04387B004460F4690469946109E1C
:10323000FFF7B0F8054694F83D00C0B2202804D04E
:103240000227384607B0BDE8F08300951923012214
:1032500088492046FFF721FC002840F0438194F87C
:103260003C30012B00F04081012384F83C3023687E
:103270001A6812F0010F03D11A6842F001021A60B5
:103280002268136823F400631360222384F83D301E
:10329000402384F83E30002323640E9B6362BDF814
:1032A0003C306385638D2385734BE3620195009603
:1032B0004B46424639462046FFF718FD0746002890
:1032C00040F01481238D5BB9029323685A690292FE
:1032D0009A690292029A1A6842F400721A6075E0C2
:1032E000012B0AD0022B1AD00023059323685A69B8
:1032F00005929B690593059B68E02268136823F497
:10330000806313600023039323685A6903929A69C8
:103310000392039A1A6842F400721A6056E0226817
:10332000136823F4806313602268136843F4006316
:1033300013600023049323685A6904929B690493E1
:10334000049B43E02A4631462046FFF7A3FD0028B0
:1033500040F0CE8023681A69636A1A70636A013389
:103360006362238D013B2385638D9BB2013B9BB23E
:1033700063852BE000953346002240492046FFF745
:103380008CFB002840F0B6802268136843F4007379
:10339000136023681A69636A1A70626A531C636255
:1033A000238D013B2385638D9BB2013B9BB26385DB
:1033B00023681B695370636A01336362238D013B89
:1033C0002385638D9BB2013B9BB26385238D002BCC
:1033D0007FD0032B54D8012BB4D0022BCAD0009538
:1033E0003346002225492046FFF757FB002840F0CE
:1033F00083802268136823F48063136023681A694A
:10340000636A1A70636A01336362238D013B23850B
:10341000638D9BB2013B9BB26385009533460022CE
:1034200016492046FFF739FB002867D12268136848
:1034300043F40073136023681A69636A1A70626A3E
:10344000531C6362238D013B2385638D9BB2013B3B
:103450009BB2638523681B695370636A013363629F
:10346000238D013B2385638D9BB2013B9BB263851A
:10347000ACE700BF020010000000FFFF04000100E5
:103480002A4631462046FFF705FD002838D123683B
:103490001A69636A1A70626A531C6362238D013B66
:1034A0002385638D9BB2013B9BB263852368596979
:1034B00011F0040F8AD01B695370636A0133636291
:1034C000238D013B2385638D9BB2013B9BB26385BA
:1034D0007CE7202384F83D30002384F83E3084F8D4
:1034E0003C30AEE60227ACE60227AAE60127A8E6B2
:1034F0000127A6E60127A4E60127A2E60127A0E608
:1035000001279EE6002800F0E08170B582B00446F5
:10351000036813F0010F3BD09F4B9B6803F00C0333
:10352000042B2CD09C4B9B6803F00C03082B21D060
:103530006368B3F5803F4FD0B3F5A02F52D0964BC0
:103540001A6822F480321A601A6822F480221A6003
:103550006368002B50D0FEF71DFF05468E4B1B689D
:1035600013F4003F14D1FEF715FF401B6428F5D972
:103570000320B1E1884B5B6813F4800FD8D0864BF1
:103580001B6813F4003F03D06368002B00F09F8199
:10359000236813F0020F54D07F4B9B6813F00C0F7D
:1035A0003ED07D4B9B6803F00C03082B33D0E368BF
:1035B000002B68D0794B01221A60FEF7EBFE05461E
:1035C000754B1B6813F0020F54D1FEF7E3FE401B4E
:1035D0000228F5D903207FE16F4A136843F4803352
:1035E0001360B5E76C4B1A6842F480221A601A68BF
:1035F00042F480321A60ABE7FEF7CCFE0546664B1C
:103600001B6813F4003FC3D0FEF7C4FE401B6428C0
:10361000F5D9032060E1604B5B6813F4800FC6D1DD
:103620005D4B1B6813F0020F03D0E368012B40F0E1
:103630005081594A136823F0F803216943EAC10312
:103640001360236813F0080F42D063696BB3534BC8
:103650000122C3F8802EFEF79DFE05464E4B5B6FA0
:1036600013F0020F34D1FEF795FE401B0228F5D966
:10367000032031E1484A136823F0F803216943EA43
:10368000C1031360DDE7454B00221A60FEF782FE9E
:103690000546414B1B6813F0020FD2D0FEF77AFEAD
:1036A000401B0228F5D9032016E13C4B0022C3F849
:1036B000802EFEF76FFE0546374B5B6F13F0020F4F
:1036C00006D0FEF767FE401B0228F5D9032003E170
:1036D000236813F0040F77D02F4B1B6C13F0805F1F
:1036E00033D1002301932C4B1A6C42F080521A64A0
:1036F0001B6C03F080530193019B0125284B1B6831
:1037000013F4807F23D0A368012B34D0052B38D04D
:10371000214B1A6F22F001021A671A6F22F004027D
:103720001A67A368002B3DD0FEF734FE06461A4BFD
:103730001B6F13F0020F46D1FEF72CFE801B41F2E7
:1037400088339842F3D90320C6E00025D6E7144A0F
:10375000136843F480731360FEF71CFE0646104B9B
:103760001B6813F4807FCED1FEF714FE801B022865
:10377000F5D90320B0E0084A136F43F00103136743
:10378000CFE7054B1A6F42F004021A671A6F42F036
:1037900001021A67C5E700BF003802400000474237
:1037A00000700040FEF7F6FD0646524B1B6F13F00B
:1037B000020F08D0FEF7EEFD801B41F288339842DD
:1037C000F3D9032088E0EDB9A369002B00F08380D2
:1037D000484A926802F00C02082A51D0022B17D0F6
:1037E000454B00221A66FEF7D5FD0446414B1B6887
:1037F00013F0007F42D0FEF7CDFD001B0228F5D963
:10380000032069E03B4A136C23F080531364DBE729
:10381000394B00221A66FEF7BDFD0546354B1B6885
:1038200013F0007F06D0FEF7B5FD401B0228F5D946
:10383000032051E0E369226A1343626A43EA821378
:10384000A26A5208013A43EA0243E26A43EA026387
:10385000284A5360284B01221A66FEF79BFD044656
:10386000244B1B6813F0007F06D1FEF793FD001B6D
:103870000228F5D903202FE000202DE000202BE0C6
:10388000012B2BD01B4B5B6803F48001E269914252
:1038900026D103F03F02216A8A4223D1616A47F6AA
:1038A000C0721A40B2EB811F1ED103F44031A26AEC
:1038B0005208013AB1EB024F18D103F07063E26A8B
:1038C000B3EB026F14D1002006E001207047012005
:1038D00002E0012000E0002002B070BD0120FBE703
:1038E0000120F9E70120F7E70120F5E70120F3E7E0
:1038F0000120F1E7003802400000474208B5254B9F
:103900009B6803F00C03042B3FD0082B3FD1214BC5
:103910005A6802F03F025B6813F4800F12D01D4B0F
:103920005968C1F388111C480023A1FB0001FDF771
:1039300077FC184B5B68C3F3014301335B00B0FBBA
:10394000F3F025E0134B5968C1F3881C4FEA4C1182
:10395000B1EB0C006EEB0E0E4FEA8E1343EA906350
:103960008101091A63EB0E03DB0043EA5173C900BE
:1039700011EB0C0C43F10003990200234FEA8C2059
:1039800041EA9C51FDF74CFCD3E7034800E00348B3
:1039900008BD00BF0038024040787D010024F400DB
:1039A000002800F09B8070B50D4604464F4B1B6805
:1039B00003F007038B4208D2CBB24C4A1370136852
:1039C00003F007038B4240F08B80236813F0020F53
:1039D00017D013F0040F04D0454A936843F4E05322
:1039E0009360236813F0080F04D0414A936843F4AE
:1039F000604393603E4A936823F0F003A1680B4351
:103A00009360236813F0010F32D06368012B21D03B
:103A10009A1E012A25D9364A126812F0020F61D087
:103A200033498A6822F0030213438B60FEF7B2FC2D
:103A300006462F4B9B6803F00C036268B3EB820FC2
:103A400016D0FEF7A7FC801B41F288339842F0D9CC
:103A5000032042E0264A126812F4003FE0D1012020
:103A60003BE0234A126812F0007FD9D1012034E0F4
:103A70001E4B1B6803F00703AB4207D9EAB21B4B8E
:103A80001A701B6803F00703AB422DD1236813F0B3
:103A9000040F06D0164A936823F4E053E1680B4301
:103AA0009360236813F0080F07D0114A936823F43A
:103AB0006043216943EAC1039360FFF71FFF0C4B8A
:103AC0009B68C3F303130B4AD35CD8400A4B1860BE
:103AD0000A4B1868FEF712FC002070BD01207047E9
:103AE0000120FAE70120F8E70120F6E7003C024058
:103AF00000380240280001080000002008000020D3
:103B0000014B1868704700BF0000002008B5FFF7A0
:103B1000F7FF044B9B68C3F38223034AD35CD8406E
:103B200008BD00BF003802403800010808B5FFF7A3
:103B3000E7FF044B9B68C3F34233034AD35CD8408E
:103B400008BD00BF003802403800010800285AD0E4
:103B500010B50446436A33B94368B3F5827F05D094
:103B60000023C36102E00023036143610023A362D9
:103B700094F85130002B40D0022384F85130226851
:103B8000136823F040031360636803F48273A26830
:103B900002F404421343E26802F400621343226910
:103BA00002F002021343626902F001021343A269A8
:103BB00002F400721343E26902F038021343226AEE
:103BC00002F080021343A26A02F4005221681343F8
:103BD0000B60638B03F00403626A02F01002216839
:103BE00013434B602268D36923F40063D361002040
:103BF0006065012384F8513010BD84F850302046B0
:103C0000FEF740F9B8E701207047000070B4036A7E
:103C100023F001030362036A4668826922F073029B
:103C20000C6844EA020523F002028B6813430D4C32
:103C3000A04209D00B4CA0420DD0466085614A6875
:103C40004263036270BC704723F00803CA681343E1
:103C500023F00403EEE726F440764A6932438E6986
:103C60001643EAE70000014030B4036A23F480738E
:103C70000362036A4568C26922F073020C6822433A
:103C800023F400738C6843EA04230F4CA04209D04C
:103C90000D4CA0420ED04560C2614A68C263036207
:103CA00030BC704723F40063CC6843EA042323F458
:103CB0008063EDE725F440554C6945EA04158C69AD
:103CC00045EA0415E7E700BF0000014030B4036A8D
:103CD00023F480530362036A4468C26922F4E64213
:103CE0000D6842EA052223F400538D6843EA053348
:103CF000074DA84206D04460C2614A68026403626C
:103D000030BC704724F480444D6944EA8514F2E7DE
:103D10000000014010B4036A046A24F00104046244
:103D2000846924F0F00C4CEA021223F00A030B43DE
:103D30008261036210BC704710B4046A24F010045E
:103D400004628469036A24F4704C4CEA023223F062
:103D5000A00343EA01138261036210BC70478368C9
:103D600023F070030B4343F00703836070470000A8
:103D700090F83D30DBB2012B2FD1022380F83D308B
:103D80000268D36843F00103D3600368154A934285
:103D900018D0B3F1804F15D0A2F57C42934211D0D8
:103DA00002F5806293420DD002F58062934209D001
:103DB00002F59A32934205D01A6842F001021A6065
:103DC000002070479A6802F00702062A07D01A6896
:103DD00042F001021A600020704701207047002065
:103DE000704700BF00000140704770477047704740
:103DF000704710B5044603681A6912F0020F11D01B
:103E0000DA6812F0020F0DD06FF002021A6101237E
:103E1000037703689B6913F0030F70D0FFF7E6FF89
:103E20000023237723681A6912F0040F12D0DA688E
:103E300012F0040F0ED06FF004021A6102232377F0
:103E400023689B6913F4407F5FD02046FFF7CEFFC5
:103E50000023237723681A6912F0080F12D0DA685A
:103E600012F0080F0ED06FF008021A6104232377B6
:103E70002368DB6913F0030F4ED02046FFF7B6FF2F
:103E80000023237723681A6912F0100F12D0DA6822
:103E900012F0100F0ED06FF010021A610823237772
:103EA0002368DB6913F4407F3DD02046FFF79EFF77
:103EB0000023237723681A6912F0010F03D0DA6810
:103EC00012F0010F36D123681A6912F0800F03D067
:103ED000DA6812F0800F34D123681A6912F0400FAB
:103EE00003D0DA6812F0400F32D123681A6912F059
:103EF000200F03D0DA6812F0200F30D110BDFFF789
:103F000074FF2046FFF773FF8AE72046FFF76DFF37
:103F10002046FFF76CFF9BE72046FFF766FF204631
:103F2000FFF765FFACE72046FFF75FFF2046FFF78E
:103F30005EFFBDE76FF001021A61204603F0DEFC70
:103F4000C1E76FF080021A61204600F091FBC3E7E1
:103F50006FF040021A612046FFF74AFFC5E76FF095
:103F600020021A61204600F082FBC7E70368254A59
:103F700090420ED0B0F1804F0BD0A2F57C4290421F
:103F800007D002F58062904203D002F58062904231
:103F900003D123F070034A6813431A4A90421AD09F
:103FA000B0F1804F17D0A2F57C42904213D002F5B9
:103FB000806290420FD002F5806290420BD002F5F1
:103FC0009A32904207D002F58062904203D002F507
:103FD0008062904203D123F44073CA68134323F0F4
:103FE00080034A69134303608B68C3620B68836272
:103FF000044B984202D00123436170470B6903636D
:10400000F9E700BF0000014040B310B5044690F846
:104010003D30F3B1022384F83D30214651F8040BC2
:10402000FFF7A4FF012384F8463084F83E3084F87B
:104030003F3084F8403084F8413084F8423084F8CE
:10404000433084F8443084F8453084F83D30002013
:1040500010BD80F83C30FDF761FFDBE701207047C1
:1040600040B310B5044690F83D30F3B1022384F814
:104070003D30214651F8040BFFF778FF012384F807
:10408000463084F83E3084F83F3084F8403084F87D
:10409000413084F8423084F8433084F8443084F866
:1040A000453084F83D30002010BD80F83C30FFF7EB
:1040B0009BFEDBE701207047002857D070B50D4606
:1040C000044690F83D30002B4BD0022384F83D305D
:1040D0002268936823F4804323F00703936021460A
:1040E00051F8040BFFF742FF21688A688B690E6A5A
:1040F0002868104323F4407C2CF0030CAA68AB69B9
:1041000042EA032343EA0C0323F47C4323F0FC0339
:10411000EA69D5F80CC04CEA022C4CEA030C2A6A76
:1041200013032A6943EA021343EA0C0326F0AA06A2
:104130006A686D6942EA05123243886021688B61C2
:1041400023681A62012384F8463084F83E3084F8EC
:104150003F3084F8423084F8433084F83D3000200A
:1041600070BD80F83C30FDF70BFFAEE701207047D3
:1041700030B4036A23F010030362036A446882695F
:1041800022F4E6420D6842EA052223F020038D68FE
:1041900043EA05130E4DA84209D00D4DA8420ED09A
:1041A000446082614A688263036230BC704723F0D6
:1041B0008003CD6843EA051323F04003EDE724F4C0
:1041C00040644D6944EA85048D6944EA8504E7E763
:1041D0000000014038B590F83C30012B66D0044611
:1041E0000D46012380F83C300C2A5AD8DFE802F053
:1041F000075959591B5959593059595944000068A0
:10420000FFF704FD2268936943F008039361226875
:10421000936923F0040393612268936929690B432E
:10422000936100203EE00068FFF7A2FF22689369D7
:1042300043F4006393612268936923F4806393617C
:1042400022689369296943EA01239361002029E0E8
:104250000068FFF709FD2268D36943F00803D361C2
:104260002268D36923F00403D3612268D3692969E2
:104270000B43D361002015E00068FFF727FD22689B
:10428000D36943F40063D3612268D36923F4806364
:10429000D3612268D369296943EA0123D3610020ED
:1042A00000E00120002384F83C3038BD0220FCE708
:1042B00010B4846824F47F4C42EA03220A4342EAA1
:1042C0000C02826010BC704790F83C30012B78D013
:1042D00010B50446012380F83C30022380F83D30BD
:1042E0000268936823F47F4323F0770393600B689D
:1042F000602B4CD029D8402B54D00CD9502B22D134
:10430000CA6849680068FFF705FD50212068FFF77B
:1043100026FD002005E0202B0DD009D9302B0AD036
:104320000120012384F83D30002384F83C3010BD87
:104330000BB1102B05D119462068FFF710FD0020A6
:10434000EFE70120EDE70120EBE7B3F5805F34D024
:10435000B3F5005F0CD1CB684A6889680068FFF745
:10436000A7FF2268936843F4804393600020D8E756
:10437000702B24D1CB684A6889680068FFF798FFE2
:104380002268936843F0770393600020C9E7CA6806
:1043900049680068FFF7D0FC60212068FFF7DFFC68
:1043A0000020BEE7CA6849680068FFF7B3FC4021F7
:1043B0002068FFF7D4FC0020B3E70020B1E701201C
:1043C000AFE70220704701F01F01012303FA01FC4F
:1043D000036A23EA0C030362036A02FA01F10B4346
:1043E0000362704710B504460846002932D194F89C
:1043F0003E30DBB2013B18BF0123002B63D1002804
:1044000041D1022384F83E30012201462068FFF7A3
:10441000DAFF23682E4A934245D023682C4A934200
:1044200046D0B3F1804F43D0A2F57C4293423FD0B7
:1044300002F5806293423BD002F58062934237D00E
:1044400002F59A32934233D01A6842F001021A60A0
:10445000002037E0042908D008290DD094F8413015
:10446000DBB2013B18BF0123C7E794F83F30DBB252
:10447000013B18BF0123C0E794F84030DBB2013B99
:1044800018BF0123B9E7042805D0082807D0022364
:1044900084F84130B8E7022384F83F30B4E70223C0
:1044A00084F84030B0E75A6C42F400425A64B4E7F2
:1044B0009A6802F00702062A07D01A6842F0010241
:1044C0001A60002010BD0120FCE70020FAE700BFC1
:1044D0000000014038B5044690F83E00C0B294F8A0
:1044E0003F3094F84220D2B294F843C00D46B1B99F
:1044F000012849D1012A48D1022384F83E3084F8AA
:1045000042307DB3042D39D0012200212068FFF70D
:104510005AFF012204212068FFF755FF27E0DBB294
:104520005FFA8CFC042912D0012833D1012B2CD145
:10453000012A31D1BCF1010F30D1022384F83E3081
:1045400084F83F3084F8423084F84330D9E7012BB7
:104550001CD1BCF1010F1BD1022384F83F3084F839
:104560004330CEE7012200212068FFF72CFF2268AC
:10457000136843F001031360002006E001220421C8
:104580002068FFF720FFF2E7012038BD0120FCE79B
:104590001846FAE70120F8E71846F6E71046F4E770
:1045A00090F83C30012B34D010B4012380F83C301B
:1045B000022380F83D3003685A689C6822F0700C32
:1045C0000A6842EA0C025A600368134A934212D006
:1045D000B3F1804F0FD0A2F57C4293420BD002F58D
:1045E0008062934207D002F58062934203D002F5C5
:1045F0009A32934204D124F080044A6814439C60A8
:10460000012380F83D30002380F83C30184610BC70
:1046100070470220704700BF0000014090F83C3016
:10462000012B22D0012380F83C30CB6823F4407367
:104630008A68134323F480634A68134323F40063B6
:104640000A68134323F480530A69134323F4005385
:104650004A69134323F48043CA69134302685364CD
:10466000002380F83C30184670470220704770479E
:104670007047026802F10C0353E8003F23F4907383
:104680000C3242E800310029F3D1026802F1140330
:1046900053E8003F23F00103143242E800310029BF
:1046A000F3D1036B012B05D0202380F83E3000238B
:1046B00003637047026802F10C0353E8003F23F0E4
:1046C00010030C3242E800310029F3D1ECE790F8F6
:1046D0003D30DBB2212B01D0022070478368B3F557
:1046E000805F17D0036A5A1C02621A7803685A6006
:1046F000C38C9BB2013B9BB2C3844BB90268D368A5
:1047000023F08003D3600268D36843F04003D36092
:10471000002070470369002BE4D1036A1B880268FC
:10472000C3F308035360036A02330362E0E7000047
:1047300038B504460268136923F44053C1680B433B
:10474000136183680269134342691343C2691A43C0
:104750000168CB6823F4164323F00C031343CB60AA
:104760000268536923F4407381690B435361036802
:10477000314A934206D002F58062934202D0FFF79D
:10478000C5F901E0FFF7D2F9E369B3F5004F29D08D
:104790000021031849411B1841F10001C90041EAF9
:1047A0005371DB00181863684FEA83024FEA937372
:1047B00041F10001FCF734FD204DA5FB0032510909
:1047C000642303FB11031B013233A5FB03235B09A5
:1047D00003F0F00202EB011203F00F03216813440F
:1047E0008B6038BD0023021843EB0301121841F11E
:1047F0000001C90041EA5271D200101841F10001D4
:10480000626892185B41FCF70BFD0C4DA5FB003272
:104810005109642303FB1103DB003233A5FB03239F
:104820005B095A0002F4F87202EB011203F007036D
:10483000216813448B60D4E7001001401F85EB51C1
:104840002DE9F84305460F4616469946DDF82080C7
:104850002C68246837EA04030CBF4FF0010C4FF0BA
:10486000000CB4452DD1B8F1FF3FF1D0B8F1000FE5
:1048700005D0FDF78FFDA0EB09004045E8D92A6877
:1048800002F10C0353E8003F23F4D0730C3242E8EA
:1048900000310029F3D12A6802F1140353E8003FE4
:1048A00023F00103143242E800310029F3D1202320
:1048B00085F83D3085F83E30002385F83C300320F4
:1048C00000E00020BDE8F88358B310B5044690F826
:1048D0003D300BB3242384F83D302268D36823F4A1
:1048E0000053D3602046FFF723FF2268136923F4A7
:1048F000904313612268536923F02A0353612268AD
:10490000D36843F40053D36000202064202384F84C
:104910003D3084F83E3010BD80F83C30FDF7CAFBD6
:10492000D8E7012070472DE9F04182B01E4690F88B
:104930003D30DBB2202B54D104460D469046002971
:1049400053D0002A53D090F83C30012B51D0012392
:1049500080F83C3000230364212380F83D30FDF7CC
:1049600019FD0746A4F82480A4F82680A368B3F5AF
:10497000805F05D04FF00008002384F83C3012E03F
:10498000236913B14FF00008F6E7A8460025F3E7C6
:1049900038F8023B2268C3F308035360E28C92B2FA
:1049A000013A92B2E284E38C9BB273B100963B462B
:1049B000002280212046FFF743FFE0B9002DE7D019
:1049C00015F8012B23685A60E8E700963B46002261
:1049D00040212046FFF734FF78B9202384F83D308A
:1049E00000E0022002B0BDE8F0810120FAE70120DA
:1049F000F8E70220F6E70320F4E70320F2E7704728
:104A000008B50168CA6822F04002CA60202280F816
:104A10003D20FFF7F4FF002008BD7047704708B540
:104A2000806B0023C385C384FFF7F8FF08BD90F8AF
:104A30003E30DBB2222B67D18368B3F5805F4DD067
:104A4000826AB3F5805F04D0002B54D10369002B38
:104A500051D103685B681370836A01338362C38D2D
:104A60009BB2013B9BB2C385002B4FD100B583B0F5
:104A70000268D36823F02003D3600268D36823F46C
:104A80008073D3600268536923F0010353612023CC
:104A900080F83E30036B012B33D10023036302689F
:104AA00002F10C0353E8003F23F010030C3242E8FC
:104AB00000310029F3D103681A6812F0100F06D0F4
:104AC000002201921A6801925B680193019B818D1B
:104AD00002F03CFF002003B05DF804FB0269002AED
:104AE000AED1826A03685B68C3F308031380836AEC
:104AF00002338362B3E703685B6803F07F031370DC
:104B0000AAE7FFF78AFFE5E7022070470020704719
:104B100030B583B0044602681368D068516913F059
:104B20000F0505D113F0200F02D010F0200F19D17E
:104B30002DB111F0010119D110F4907F16D1216B24
:104B400001297DD013F0800F03D010F0800F40F0CA
:104B5000158113F0400F03D010F0400F40F0128188
:104B600003B030BD2046FFF762FFF9E713F0010FF5
:104B700006D010F4807F03D0226C42F00102226440
:104B800013F0040F04D019B1226C42F00202226427
:104B900013F0020F04D019B1226C42F00402226417
:104BA00013F0080F07D010F0200F00D119B1226CBC
:104BB00042F008022264226C002AD1D013F0200FA8
:104BC00002D010F0200F29D123685B6903F0400365
:104BD000226C12F0080F00D163B32046FFF749FDA5
:104BE00023685B6913F0400F20D0226802F11403A0
:104BF00053E8003F23F04003143242E8003100291B
:104C0000F3D1A36B73B1614A1A65A06BFDF724FE63
:104C10000028A5D0A06B036D9847A1E72046FFF7B9
:104C200006FFD1E72046FFF7F9FE99E72046FFF798
:104C3000F5FE95E72046FFF7F1FE002323648FE79A
:104C400013F0100F3FF47EAF10F0100F3FF47AAF67
:104C5000002301931368019353680193019B5369E7
:104C600013F0400F50D0A26B13685B689BB2002B0F
:104C70003FF476AFA18D99427FF672AFE385D36999
:104C8000B3F5807F37D0226802F10C0353E8003F70
:104C900023F480730C3242E800310029F3D12268FA
:104CA00002F1140353E8003F23F00103143242E8F9
:104CB00000310029F3D1226802F1140353E8003FC8
:104CC00023F04003143242E800310029F3D12023BD
:104CD00084F83E3000232363226802F10C0353E87A
:104CE000003F23F010030C3242E800310029F3D1D9
:104CF000A06BFDF767FDA18DE38D9BB2C91A89B248
:104D0000204602F023FE2BE7A18DE38D9BB2C91A4A
:104D100089B2E38D9BB2002B3FF422AF00293FF410
:104D20001FAF226802F10C0353E8003F23F4907395
:104D30000C3242E800300028F3D1226802F114035B
:104D400053E8003F23F00103143242E8003000280A
:104D5000F3D1202384F83E3000232363226802F13C
:104D60000C0353E8003F23F010030C3242E80030FC
:104D70000028F3D1204602F0E9FDF1E62046FFF7D6
:104D8000A6FCEDE62046FFF73BFEE9E61F4A0008D9
:104D900081628285C28500230364222280F83E203E
:104DA00080F83C30036923B10268D36843F4807310
:104DB000D3600268536943F0010353610268D3680A
:104DC00043F02003D3600020704790F83E30DBB200
:104DD000202B29D110B582B0044639B342B390F8E4
:104DE0003C30012B27D0012380F83C300363FFF7D0
:104DF000CFFFF0B9236B012B01D0012019E0002374
:104E0000019323681A6801925B680193019B2268F1
:104E100002F10C0353E8003F43F010030C3242E868
:104E200000310029F3D104E002207047012000E0A6
:104E3000012002B010BD0220FBE70000F0B583B0F6
:104E4000074601AA04210D2002F034FB00284BD1B3
:104E500004469DF80420D21002F01C029DF80710B1
:104E6000C1F301131A438DF800209DF80520D210DC
:104E700002F01C02C1F381031A438DF801209DF852
:104E80000630DB1003F01C0301F003010B438DF827
:104E9000023018E007EB8405144B47F8243004E097
:104EA00013492868FBF760FF286006F108030DEB43
:104EB000030212F8083C013BDBB202F8083C002B6D
:104EC000EED10134E4B2022C0BD8264604F10803DB
:104ED0006B4413F8083C002BDCD1002347F8243046
:104EE000EFE7002003B0F0BD0720FBE77B14AE3EE8
:104EF0001D5A843F2DE9F04182B00746884601AA39
:104F000003210D2002F0D6FA00285FD19DF804306D
:104F100003F01F038DF804309DF8053003F01F03E4
:104F20008DF805309DF8063003F01F038DF806302C
:104F30000026344626E02849FBF716FF04F1080353
:104F40000DEB030212F8043C013BDBB202F8043C17
:104F5000002BF0D101462846FBF7BAFF4FF07E51F7
:104F6000FBF7F8FD20F000401C49FCF7B9F840B110
:104F70000123A3401E4304E01948DFE70123A340B7
:104F80001E430134022C22DC57F8240058F8243048
:104F9000C01A0028B8BF4042FBF792FE4FF05E51A6
:104FA000FBF7E2FE054604F108036B4413F8043CEA
:104FB000002BE1D10B49FCF775F80028DED10A4936
:104FC0002846FCF78DF80028DBD0D7E707263046C7
:104FD00002B0BDE8F08100BF54E3853F295C0F3E7D
:104FE0000000C841000020410000D2420000000043
:104FF0002DE9F04389B080460F4605A8FFF71EFF54
:105000004FF000094C4620E039493046FCF74AF899
:1050100020B938493046FCF763F8A8B13046FBF7B1
:1050200053FA02460B462CA1D1E90001CDE9020159
:105030002BA1D1E90001CDE900012F4802F04EFD7E
:105040000123A34049EA03090134022C3DDCA500F9
:1050500058F8240057F82430C01A0028B8BF40423E
:10506000FBF72EFE4FF05E51FBF77EFE064605F184
:1050700020030DEB030555F80C5C00212846FCF7D6
:1050800007F80028C0D129463046FBF721FF4FF032
:105090007E51FBF75FFD054620F000401749FCF705
:1050A0001FF80028D0D02846FBF70EFA02460B4620
:1050B0000DA1D1E90001CDE90001114802F00EFD7A
:1050C0000123A34049EA0309BEE7484609B0BDE809
:1050D000F08300BFAFF30080000000606666EE3F23
:1050E000000000403333D33F0000002085EBC13F78
:1050F0009A99993E3333733F58000108295C0F3E5B
:105100004000010800B583B0214B93F82430BBB1B7
:1051100090B102238DF807301D4B1B680DF107027B
:105120000121D87B02F0B2F938BB9DF80720184B5B
:105130005A7403B05DF804FB00238DF80730EBE7E9
:10514000134B9B7AE3B110B1114B5B7CDBB980B19F
:1051500001238DF807300E4B1B680DF1070201216A
:10516000D87B02F093F980B99DF80720084B5A7458
:10517000DFE700238DF80730EDE74FF0FF30D8E789
:105180004FF0FF30D5E70020D3E74FF0FF30D0E7F6
:1051900018000020F0B589B005460C4616460123DC
:1051A0008DF8143000238DF81530A24B1B6805AA2A
:1051B0000221987C02F06AF9002840F0AF81C820F3
:1051C000FDF7EEF800238DF814309A4B1B6805AA02
:1051D0000121D87B02F05AF9002840F0A281954BBA
:1051E0001B6805AA0121587902F050F9002840F007
:1051F0009B81904B1B6805AA0121987C02F046F91F
:10520000002840F094818B4B1B6805AA0121D87DB2
:1052100002F03CF9002840F08D81864B1B6805AAFE
:105220000121187902F032F9002840F086810C2320
:105230008DF814307F4B1B6805AA0121187902F004
:1052400025F9002840F07C810F20FDF7A9F8794B63
:105250009A6A527A8DF814201B6805AA0121987861
:1052600002F014F9002840F06E81724B9A6A127AAB
:105270008DF814201B6805AA0121587802F006F960
:10528000002840F06381002E6DD06A4B9B6A9B7AA8
:1052900063F01F038DF81430664B1B6805AA0121CB
:1052A000987902F0F3F8002840F05381002E60D086
:1052B000604B9B6ADB7A63F01F038DF814305D4B03
:1052C0001B6805AA0121D87902F0E0F8002840F017
:1052D0004381002E51D140238DF81430554B1B686B
:1052E00005AA0121187902F0D1F8002840F0378191
:1052F00078238DF814304F4B1B6805AA012158798B
:1053000002F0C4F8002840F02D813220FDF748F863
:1053100000238DF81430474B1B6805AA01215879EA
:1053200002F0B4F8002840F02081424B1B6805AA27
:105330000221987A02F0BEF80646002840F0188153
:105340009DF814309DF8157047EA03273A4BA3FBEC
:105350000737C7F3C7070023AB606B602B60A36000
:105360006360236057E0334B9B6A9B7A8DF814305F
:1053700092E718238DF81430A1E7C820FDF710F844
:10538000A9E79DF814309DF8151041EA032109B2F0
:10539000ADF804109DF816309DF8172042EA03225C
:1053A00012B2ADF806209DF818009DF8193043EAB6
:1053B00000231BB2ADF80830206801442160616809
:1053C0000A446260A2681344A3609DF81A309DF8F5
:1053D0001B1041EA032109B2ADF80C109DF81C30F6
:1053E0009DF81D2042EA032212B2ADF80E209DF86E
:1053F0001E009DF81F3043EA00231BB2ADF81030A9
:1054000028680144296069680A446A60AA681344EC
:10541000AB600136F6B2BE4210D2064B1B6805AA3D
:105420000C21D87A02F046F80028AAD04FF0FF30BD
:1054300009B0F0BD18000020ABAAAAAA29688322EF
:10544000002308040914FBF79BFE00263A46334666
:10545000FBF796FE2860696883220023080409147C
:10546000FBF78EFE3A463346FBF78AFE6860A96872
:105470008322002308040914FBF782FE3A463346D0
:10548000FBF77EFEA8602068031400041946B342AF
:105490002DDBC00A3A46334640EA4150C912FBF7B9
:1054A0006FFE20606068031400041946002B24DBA3
:1054B000C00A3A46334640EA4150C912FBF760FE43
:1054C0006060A068031400041946002B1BDBC00AAF
:1054D0003A46334640EA4150C912FBF751FEA060FC
:1054E000002816DDA0F58030A0600020A0E740F283
:1054F000FF72801843F10001CBE740F2FF72801881
:1055000043F10001D4E740F2FF72801843F100013B
:10551000DDE700F58030A060002089E74FF0FF3024
:1055200086E74FF0FF3083E74FF0FF3080E74FF022
:10553000FF307DE74FF0FF307AE74FF0FF3077E73D
:105540004FF0FF3074E74FF0FF3071E74FF0FF305E
:105550006EE74FF0FF306BE74FF0FF3068E74FF03A
:10556000FF3065E74FF0FF3062E74FF0FF305FE755
:105570004FF0FF305CE700BF714B9B7A002B00F0CF
:10558000BD8000B583B000238DF807306C4B1B68DD
:105590000DF107020121D87B01F078FF002840F0CF
:1055A000B080674B1B680DF107020121587901F0AB
:1055B0006DFF002840F0A880614B1B680DF10702C9
:1055C0000121187901F062FF002840F0A0805C4BB7
:1055D00093F82430002B49D00C238DF80730584B1A
:1055E0001B680DF107020121187901F04FFF002817
:1055F00040F090803220FCF7D3FEC0238DF80730B6
:105600004F4B9B7A13F0010F02D0E0238DF8073047
:105610004B4B1B680DF107020121187901F036FF91
:1056200000287AD1464B5B7CE3B102238DF807302A
:10563000434B1B680DF107020121D87B01F026FFC7
:1056400000286DD100238DF807303D4B1B680DF10C
:1056500007020121587901F019FF002863D103B036
:105660005DF804FB00238DF80730E1E704238DF893
:105670000730334B1B680DF107020121187901F047
:1056800005FF002852D12E4B9B7C23B92C4B9B7AD3
:1056900013F0010F2AD140238DF80730284B1B68E7
:1056A0000DF107020121187901F0F0FE002840D128
:1056B0003220FCF775FE224B5B7CDBB101238DF8B9
:1056C00007301F4B1B680DF107020121D87B01F049
:1056D000DDFE88BB1A4A52F8103B0121587901F0CF
:1056E000D5FE0028BBD04FF0FF30B8E760238DF81F
:1056F0000730D3E700238DF80730E2E74FF0FF30A3
:1057000070474FF0FF30AAE74FF0FF30A7E74FF0A8
:10571000FF30A4E74FF0FF30A1E74FF0FF309EE7E6
:105720004FF0FF309BE74FF0FF3098E74FF0FF302E
:1057300095E74FF0FF3092E74FF0FF308FE700BF63
:10574000180000200D4B1B7A032B13D8DFE803F061
:1057500002060A0EFA230380002070474FF4FA7302
:105760000380F9E74FF47A730380F5E74FF4FA63A7
:105770000380F1E700230380EEE700BF180000205C
:10578000234B9B7A002B3AD000B583B0B0F57A7FDB
:1057900031D00BD8FA2813D0B0F5FA7F03D1082303
:1057A0008DF807300FE04FF0FF3021E0B0F5FA6FD1
:1057B00003D118238DF8073005E04FF0FF3017E0D4
:1057C00000238DF80730124B1B7A9DF80720B3EBAE
:1057D000D20F17D00E4B1B680DF1070201219879EB
:1057E00001F054FE80B99DF80730DB08084A1372B7
:1057F00003B05DF804FB10238DF80730E3E74FF0AA
:10580000FF3070470020F3E74FF0FF30F0E700BFB4
:10581000180000200F4B5B7A032B16D8DFE803F04B
:10582000020C0F12022303700A4BDB7C83B1037856
:105830005B0003700020704704230370F4E7082323
:105840000370F1E710230370EEE74FF0FF3070476D
:105850000020704718000020224B9B7A002B33D089
:1058600000B583B002380E2831D8DFE800F00830E8
:1058700021303030253030303030303029000023B6
:105880008DF80730174B5B7A9DF80720B3EBD20FEA
:1058900022D0144B1B680DF107020121D87901F0C9
:1058A000F5FDD8B99DF80730DB080E4A537210E0B9
:1058B00008238DF80730E5E710238DF80730E1E77E
:1058C00018238DF80730DDE74FF0FF3070474FF0B9
:1058D000FF3003B05DF804FB0020FAE74FF0FF3023
:1058E000F7E700BF180000200F4BDB7A013B052BC8
:1058F00017D8DFE803F003070A0D1013BC23038059
:105900000020704762230380FAE72A230380F7E729
:1059100014230380F4E70A230380F1E705230380BF
:10592000EEE700230380EBE718000020224B9B7A70
:10593000002B38D000B583B0BB2818D901238DF8CF
:1059400007301D4BDA7A9DF807309A422ED01A4B59
:105950001B680DF107020121987801F097FD38BB13
:105960009DF80720144BDA7203B05DF804FB612840
:1059700003D902238DF80730E3E7292803D903234D
:105980008DF80730DDE7132803D904238DF807309D
:10599000D7E7092803D905238DF80730D1E7062377
:1059A0008DF80730CDE74FF0FF3070470020DBE780
:1059B0004FF0FF30D8E700BF18000020054B93F8E8
:1059C000243023B9034BDB890380002070474FF05C
:1059D000FF307047180000200D4B1B7A032B13D8A3
:1059E000DFE803F002060A0E0A4B0360002070474E
:1059F000094B036000207047084B0360002070478C
:105A0000074B0360002070474FF0FF30704700BF26
:105A10001800002000000343000083423333034298
:105A200033338341114B5B7A032B1AD8DFE803F041
:105A3000020D11154FF4804303800C4BDB7C9BB1AE
:105A400003885B0803800020704741F69C73038045
:105A5000F3E74FF480530380EFE74FF400630380D4
:105A6000EBE74FF0FF307047002070471800002030
:105A7000024B1B7C03700020704700BF1800002001
:105A800070B5174B93F824302BBB00F0FE04144B79
:105A90009B7A13B3124A167C23401374A3420BD093
:105AA0004FF0FF3514B90E4B1B7D3BB10120FFF7C2
:105AB00029FB3CB9284670BD0025F3E70020FFF71D
:105AC00021FBF6E7FFF758FD0028F3D0044B1E74C6
:105AD0004FF0FF35EEE70025ECE74FF0FF35E9E743
:105AE000180000202C4B93F82430002B44D0F0B544
:105AF00083B005460F461646274B9B7A002B3ED0B7
